{
  "_format": "hh-sol-artifact-1",
  "contractName": "MyEpicNft",
  "sourceName": "contracts/MyEpicNFT.sol",
  "abi": [
    {
      "inputs": [],
      "stateMutability": "nonpayable",
      "type": "constructor"
    },
    {
      "anonymous": false,
      "inputs": [
        {
          "indexed": true,
          "internalType": "address",
          "name": "owner",
          "type": "address"
        },
        {
          "indexed": true,
          "internalType": "address",
          "name": "approved",
          "type": "address"
        },
        {
          "indexed": true,
          "internalType": "uint256",
          "name": "tokenId",
          "type": "uint256"
        }
      ],
      "name": "Approval",
      "type": "event"
    },
    {
      "anonymous": false,
      "inputs": [
        {
          "indexed": true,
          "internalType": "address",
          "name": "owner",
          "type": "address"
        },
        {
          "indexed": true,
          "internalType": "address",
          "name": "operator",
          "type": "address"
        },
        {
          "indexed": false,
          "internalType": "bool",
          "name": "approved",
          "type": "bool"
        }
      ],
      "name": "ApprovalForAll",
      "type": "event"
    },
    {
      "anonymous": false,
      "inputs": [
        {
          "indexed": true,
          "internalType": "address",
          "name": "from",
          "type": "address"
        },
        {
          "indexed": true,
          "internalType": "address",
          "name": "to",
          "type": "address"
        },
        {
          "indexed": true,
          "internalType": "uint256",
          "name": "tokenId",
          "type": "uint256"
        }
      ],
      "name": "Transfer",
      "type": "event"
    },
    {
      "inputs": [
        {
          "internalType": "address",
          "name": "to",
          "type": "address"
        },
        {
          "internalType": "uint256",
          "name": "tokenId",
          "type": "uint256"
        }
      ],
      "name": "approve",
      "outputs": [],
      "stateMutability": "nonpayable",
      "type": "function"
    },
    {
      "inputs": [
        {
          "internalType": "address",
          "name": "owner",
          "type": "address"
        }
      ],
      "name": "balanceOf",
      "outputs": [
        {
          "internalType": "uint256",
          "name": "",
          "type": "uint256"
        }
      ],
      "stateMutability": "view",
      "type": "function"
    },
    {
      "inputs": [
        {
          "internalType": "uint256",
          "name": "tokenId",
          "type": "uint256"
        }
      ],
      "name": "getApproved",
      "outputs": [
        {
          "internalType": "address",
          "name": "",
          "type": "address"
        }
      ],
      "stateMutability": "view",
      "type": "function"
    },
    {
      "inputs": [
        {
          "internalType": "address",
          "name": "owner",
          "type": "address"
        },
        {
          "internalType": "address",
          "name": "operator",
          "type": "address"
        }
      ],
      "name": "isApprovedForAll",
      "outputs": [
        {
          "internalType": "bool",
          "name": "",
          "type": "bool"
        }
      ],
      "stateMutability": "view",
      "type": "function"
    },
    {
      "inputs": [],
      "name": "makeAnEpicNFT",
      "outputs": [],
      "stateMutability": "nonpayable",
      "type": "function"
    },
    {
      "inputs": [],
      "name": "name",
      "outputs": [
        {
          "internalType": "string",
          "name": "",
          "type": "string"
        }
      ],
      "stateMutability": "view",
      "type": "function"
    },
    {
      "inputs": [
        {
          "internalType": "uint256",
          "name": "tokenId",
          "type": "uint256"
        }
      ],
      "name": "ownerOf",
      "outputs": [
        {
          "internalType": "address",
          "name": "",
          "type": "address"
        }
      ],
      "stateMutability": "view",
      "type": "function"
    },
    {
      "inputs": [
        {
          "internalType": "uint256",
          "name": "tokenId",
          "type": "uint256"
        }
      ],
      "name": "pickRandomFirstWord",
      "outputs": [
        {
          "internalType": "string",
          "name": "",
          "type": "string"
        }
      ],
      "stateMutability": "view",
      "type": "function"
    },
    {
      "inputs": [
        {
          "internalType": "uint256",
          "name": "tokenId",
          "type": "uint256"
        }
      ],
      "name": "pickRandomSecondWord",
      "outputs": [
        {
          "internalType": "string",
          "name": "",
          "type": "string"
        }
      ],
      "stateMutability": "view",
      "type": "function"
    },
    {
      "inputs": [
        {
          "internalType": "uint256",
          "name": "tokenId",
          "type": "uint256"
        }
      ],
      "name": "pickThirdRandomWord",
      "outputs": [
        {
          "internalType": "string",
          "name": "",
          "type": "string"
        }
      ],
      "stateMutability": "view",
      "type": "function"
    },
    {
      "inputs": [
        {
          "internalType": "address",
          "name": "from",
          "type": "address"
        },
        {
          "internalType": "address",
          "name": "to",
          "type": "address"
        },
        {
          "internalType": "uint256",
          "name": "tokenId",
          "type": "uint256"
        }
      ],
      "name": "safeTransferFrom",
      "outputs": [],
      "stateMutability": "nonpayable",
      "type": "function"
    },
    {
      "inputs": [
        {
          "internalType": "address",
          "name": "from",
          "type": "address"
        },
        {
          "internalType": "address",
          "name": "to",
          "type": "address"
        },
        {
          "internalType": "uint256",
          "name": "tokenId",
          "type": "uint256"
        },
        {
          "internalType": "bytes",
          "name": "data",
          "type": "bytes"
        }
      ],
      "name": "safeTransferFrom",
      "outputs": [],
      "stateMutability": "nonpayable",
      "type": "function"
    },
    {
      "inputs": [
        {
          "internalType": "address",
          "name": "operator",
          "type": "address"
        },
        {
          "internalType": "bool",
          "name": "approved",
          "type": "bool"
        }
      ],
      "name": "setApprovalForAll",
      "outputs": [],
      "stateMutability": "nonpayable",
      "type": "function"
    },
    {
      "inputs": [
        {
          "internalType": "bytes4",
          "name": "interfaceId",
          "type": "bytes4"
        }
      ],
      "name": "supportsInterface",
      "outputs": [
        {
          "internalType": "bool",
          "name": "",
          "type": "bool"
        }
      ],
      "stateMutability": "view",
      "type": "function"
    },
    {
      "inputs": [],
      "name": "symbol",
      "outputs": [
        {
          "internalType": "string",
          "name": "",
          "type": "string"
        }
      ],
      "stateMutability": "view",
      "type": "function"
    },
    {
      "inputs": [
        {
          "internalType": "uint256",
          "name": "tokenId",
          "type": "uint256"
        }
      ],
      "name": "tokenURI",
      "outputs": [
        {
          "internalType": "string",
          "name": "",
          "type": "string"
        }
      ],
      "stateMutability": "view",
      "type": "function"
    },
    {
      "inputs": [
        {
          "internalType": "address",
          "name": "from",
          "type": "address"
        },
        {
          "internalType": "address",
          "name": "to",
          "type": "address"
        },
        {
          "internalType": "uint256",
          "name": "tokenId",
          "type": "uint256"
        }
      ],
      "name": "transferFrom",
      "outputs": [],
      "stateMutability": "nonpayable",
      "type": "function"
    }
  ],
  "bytecode": "0x608060405260405180610160016040528061012f8152602001620049a161012f91396008908162000031919062000f5b565b50604051806101c001604052806040518060400160405280600581526020017f6472756e6b00000000000000000000000000000000000000000000000000000081525081526020016040518060400160405280600481526020017f6c6f76650000000000000000000000000000000000000000000000000000000081525081526020016040518060400160405280600481526020017f737461720000000000000000000000000000000000000000000000000000000081525081526020016040518060400160405280600881526020017f67656e657261746500000000000000000000000000000000000000000000000081525081526020016040518060400160405280600481526020017f747261790000000000000000000000000000000000000000000000000000000081525081526020016040518060400160405280600481526020017f73696e670000000000000000000000000000000000000000000000000000000081525081526020016040518060400160405280600381526020017f73696e000000000000000000000000000000000000000000000000000000000081525081526020016040518060400160405280600481526020017f62616c6c0000000000000000000000000000000000000000000000000000000081525081526020016040518060400160405280600481526020017f637261620000000000000000000000000000000000000000000000000000000081525081526020016040518060400160405280600681526020017f6f787967656e000000000000000000000000000000000000000000000000000081525081526020016040518060400160405280600581526020017f646569747900000000000000000000000000000000000000000000000000000081525081526020016040518060400160405280600381526020017f474f44000000000000000000000000000000000000000000000000000000000081525081526020016040518060400160405280600581526020017f627261766500000000000000000000000000000000000000000000000000000081525081526020016040518060400160405280600581526020017f6272616b65000000000000000000000000000000000000000000000000000000815250815250600990600e6200038892919062000bf4565b50604051806101c001604052806040518060400160405280600481526020017f63616d650000000000000000000000000000000000000000000000000000000081525081526020016040518060400160405280600381526020017f646179000000000000000000000000000000000000000000000000000000000081525081526020016040518060400160405280600581526020017f647269766500000000000000000000000000000000000000000000000000000081525081526020016040518060400160405280600481526020017f746561720000000000000000000000000000000000000000000000000000000081525081526020016040518060400160405280600381526020017f696e6b000000000000000000000000000000000000000000000000000000000081525081526020016040518060400160405280600581526020017f636861697200000000000000000000000000000000000000000000000000000081525081526020016040518060400160405280600481526020017f637261790000000000000000000000000000000000000000000000000000000081525081526020016040518060400160405280600481526020017f67616d650000000000000000000000000000000000000000000000000000000081525081526020016040518060400160405280600381526020017f676179000000000000000000000000000000000000000000000000000000000081525081526020016040518060400160405280600481526020017f747265650000000000000000000000000000000000000000000000000000000081525081526020016040518060400160405280600481526020017f74696e6b0000000000000000000000000000000000000000000000000000000081525081526020016040518060400160405280600381526020017f726170000000000000000000000000000000000000000000000000000000000081525081526020016040518060400160405280600481526020017f72616b650000000000000000000000000000000000000000000000000000000081525081526020016040518060400160405280600381526020017f756e690000000000000000000000000000000000000000000000000000000000815250815250600a90600e620006df92919062000bf4565b50604051806101c001604052806040518060400160405280600481526020017f63616c6c0000000000000000000000000000000000000000000000000000000081525081526020016040518060400160405280600381526020017f63616e000000000000000000000000000000000000000000000000000000000081525081526020016040518060400160405280600581526020017f737472617900000000000000000000000000000000000000000000000000000081525081526020016040518060400160405280600381526020017f72616e000000000000000000000000000000000000000000000000000000000081525081526020016040518060400160405280600381526020017f62616e000000000000000000000000000000000000000000000000000000000081525081526020016040518060400160405280600381526020017f627261000000000000000000000000000000000000000000000000000000000081525081526020016040518060400160405280600381526020017f62696e000000000000000000000000000000000000000000000000000000000081525081526020016040518060400160405280600481526020017f62616c6d0000000000000000000000000000000000000000000000000000000081525081526020016040518060400160405280600381526020017f666172000000000000000000000000000000000000000000000000000000000081525081526020016040518060400160405280600481526020017f66616d650000000000000000000000000000000000000000000000000000000081525081526020016040518060400160405280600381526020017f66696e000000000000000000000000000000000000000000000000000000000081525081526020016040518060400160405280600481526020017f666f6f640000000000000000000000000000000000000000000000000000000081525081526020016040518060400160405280600481526020017f6a616e650000000000000000000000000000000000000000000000000000000081525081526020016040518060400160405280600381526020017f6361620000000000000000000000000000000000000000000000000000000000815250815250600b90600e62000a3692919062000bf4565b5034801562000a4457600080fd5b506040518060400160405280600981526020017f5371756172654e465400000000000000000000000000000000000000000000008152506040518060400160405280600681526020017f5351554152450000000000000000000000000000000000000000000000000000815250816000908162000ac2919062000f5b565b50806001908162000ad4919062000f5b565b50505062000b226040518060400160405280601781526020017f74686973206973206d79206e667420636f6e747261637400000000000000000081525062000b2860201b6200105f1760201c565b620010f5565b62000bc88160405160240162000b3f9190620010d1565b6040516020818303038152906040527f41304fac000000000000000000000000000000000000000000000000000000007bffffffffffffffffffffffffffffffffffffffffffffffffffffffff19166020820180517bffffffffffffffffffffffffffffffffffffffffffffffffffffffff838183161783525050505062000bcb60201b60201c565b50565b60008151905060006a636f6e736f6c652e6c6f679050602083016000808483855afa5050505050565b82805482825590600052602060002090810192821562000c41579160200282015b8281111562000c4057825182908162000c2f919062000f5b565b509160200191906001019062000c15565b5b50905062000c50919062000c54565b5090565b5b8082111562000c78576000818162000c6e919062000c7c565b5060010162000c55565b5090565b50805462000c8a9062000d4a565b6000825580601f1062000c9e575062000cbf565b601f01602090049060005260206000209081019062000cbe919062000cc2565b5b50565b5b8082111562000cdd57600081600090555060010162000cc3565b5090565b600081519050919050565b7f4e487b7100000000000000000000000000000000000000000000000000000000600052604160045260246000fd5b7f4e487b7100000000000000000000000000000000000000000000000000000000600052602260045260246000fd5b6000600282049050600182168062000d6357607f821691505b60208210810362000d795762000d7862000d1b565b5b50919050565b60008190508160005260206000209050919050565b60006020601f8301049050919050565b600082821b905092915050565b60006008830262000de37fffffffffffffffffffffffffffffffffffffffffffffffffffffffffffffffff8262000da4565b62000def868362000da4565b95508019841693508086168417925050509392505050565b6000819050919050565b6000819050919050565b600062000e3c62000e3662000e308462000e07565b62000e11565b62000e07565b9050919050565b6000819050919050565b62000e588362000e1b565b62000e7062000e678262000e43565b84845462000db1565b825550505050565b600090565b62000e8762000e78565b62000e9481848462000e4d565b505050565b5b8181101562000ebc5762000eb060008262000e7d565b60018101905062000e9a565b5050565b601f82111562000f0b5762000ed58162000d7f565b62000ee08462000d94565b8101602085101562000ef0578190505b62000f0862000eff8562000d94565b83018262000e99565b50505b505050565b600082821c905092915050565b600062000f306000198460080262000f10565b1980831691505092915050565b600062000f4b838362000f1d565b9150826002028217905092915050565b62000f668262000ce1565b67ffffffffffffffff81111562000f825762000f8162000cec565b5b62000f8e825462000d4a565b62000f9b82828562000ec0565b600060209050601f83116001811462000fd3576000841562000fbe578287015190505b62000fca858262000f3d565b8655506200103a565b601f19841662000fe38662000d7f565b60005b828110156200100d5784890151825560018201915060208501945060208101905062000fe6565b868310156200102d578489015162001029601f89168262000f1d565b8355505b6001600288020188555050505b505050505050565b600082825260208201905092915050565b60005b838110156200107357808201518184015260208101905062001056565b60008484015250505050565b6000601f19601f8301169050919050565b60006200109d8262000ce1565b620010a9818562001042565b9350620010bb81856020860162001053565b620010c6816200107f565b840191505092915050565b60006020820190508181036000830152620010ed818462001090565b905092915050565b61389c80620011056000396000f3fe608060405234801561001057600080fd5b506004361061010b5760003560e01c806370a08231116100a2578063b187301f11610071578063b187301f146102dc578063b88d4fde1461030c578063c87b56dd14610328578063de9d132f14610358578063e985e9c5146103625761010b565b806370a082311461024257806395d89b4114610272578063a198d84a14610290578063a22cb465146102c05761010b565b806323b872dd116100de57806323b872dd146101aa5780632de38d68146101c657806342842e0e146101f65780636352211e146102125761010b565b806301ffc9a71461011057806306fdde0314610140578063081812fc1461015e578063095ea7b31461018e575b600080fd5b61012a60048036038101906101259190612111565b610392565b6040516101379190612159565b60405180910390f35b610148610474565b6040516101559190612204565b60405180910390f35b6101786004803603810190610173919061225c565b610506565b60405161018591906122ca565b60405180910390f35b6101a860048036038101906101a39190612311565b61054c565b005b6101c460048036038101906101bf9190612351565b610663565b005b6101e060048036038101906101db919061225c565b6106c3565b6040516101ed9190612204565b60405180910390f35b610210600480360381019061020b9190612351565b6107bb565b005b61022c6004803603810190610227919061225c565b6107db565b60405161023991906122ca565b60405180910390f35b61025c600480360381019061025791906123a4565b61088c565b60405161026991906123e0565b60405180910390f35b61027a610943565b6040516102879190612204565b60405180910390f35b6102aa60048036038101906102a5919061225c565b6109d5565b6040516102b79190612204565b60405180910390f35b6102da60048036038101906102d59190612427565b610acd565b005b6102f660048036038101906102f1919061225c565b610ae3565b6040516103039190612204565b60405180910390f35b6103266004803603810190610321919061259c565b610bdb565b005b610342600480360381019061033d919061225c565b610c3d565b60405161034f9190612204565b60405180910390f35b610360610d4f565b005b61037c6004803603810190610377919061261f565b610fcb565b6040516103899190612159565b60405180910390f35b60007f80ac58cd000000000000000000000000000000000000000000000000000000007bffffffffffffffffffffffffffffffffffffffffffffffffffffffff1916827bffffffffffffffffffffffffffffffffffffffffffffffffffffffff1916148061045d57507f5b5e139f000000000000000000000000000000000000000000000000000000007bffffffffffffffffffffffffffffffffffffffffffffffffffffffff1916827bffffffffffffffffffffffffffffffffffffffffffffffffffffffff1916145b8061046d575061046c826110f8565b5b9050919050565b6060600080546104839061268e565b80601f01602080910402602001604051908101604052809291908181526020018280546104af9061268e565b80156104fc5780601f106104d1576101008083540402835291602001916104fc565b820191906000526020600020905b8154815290600101906020018083116104df57829003601f168201915b5050505050905090565b600061051182611162565b6004600083815260200190815260200160002060009054906101000a900473ffffffffffffffffffffffffffffffffffffffff169050919050565b6000610557826107db565b90508073ffffffffffffffffffffffffffffffffffffffff168373ffffffffffffffffffffffffffffffffffffffff16036105c7576040517f08c379a00000000000000000000000000000000000000000000000000000000081526004016105be90612731565b60405180910390fd5b8073ffffffffffffffffffffffffffffffffffffffff166105e66111ad565b73ffffffffffffffffffffffffffffffffffffffff16148061061557506106148161060f6111ad565b610fcb565b5b610654576040517f08c379a000000000000000000000000000000000000000000000000000000000815260040161064b906127c3565b60405180910390fd5b61065e83836111b5565b505050565b61067461066e6111ad565b8261126e565b6106b3576040517f08c379a00000000000000000000000000000000000000000000000000000000081526004016106aa90612855565b60405180910390fd5b6106be838383611303565b505050565b606060006106f76106d384611569565b6040516020016106e391906128fd565b6040516020818303038152906040526116c9565b90506009805490508161070a919061294e565b9050600981815481106107205761071f61297f565b5b9060005260206000200180546107359061268e565b80601f01602080910402602001604051908101604052809291908181526020018280546107619061268e565b80156107ae5780601f10610783576101008083540402835291602001916107ae565b820191906000526020600020905b81548152906001019060200180831161079157829003601f168201915b5050505050915050919050565b6107d683838360405180602001604052806000815250610bdb565b505050565b6000806002600084815260200190815260200160002060009054906101000a900473ffffffffffffffffffffffffffffffffffffffff169050600073ffffffffffffffffffffffffffffffffffffffff168173ffffffffffffffffffffffffffffffffffffffff1603610883576040517f08c379a000000000000000000000000000000000000000000000000000000000815260040161087a906129fa565b60405180910390fd5b80915050919050565b60008073ffffffffffffffffffffffffffffffffffffffff168273ffffffffffffffffffffffffffffffffffffffff16036108fc576040517f08c379a00000000000000000000000000000000000000000000000000000000081526004016108f390612a8c565b60405180910390fd5b600360008373ffffffffffffffffffffffffffffffffffffffff1673ffffffffffffffffffffffffffffffffffffffff168152602001908152602001600020549050919050565b6060600180546109529061268e565b80601f016020809104026020016040519081016040528092919081815260200182805461097e9061268e565b80156109cb5780601f106109a0576101008083540402835291602001916109cb565b820191906000526020600020905b8154815290600101906020018083116109ae57829003601f168201915b5050505050905090565b60606000610a096109e584611569565b6040516020016109f59190612af8565b6040516020818303038152906040526116c9565b9050600b8054905081610a1c919061294e565b9050600b8181548110610a3257610a3161297f565b5b906000526020600020018054610a479061268e565b80601f0160208091040260200160405190810160405280929190818152602001828054610a739061268e565b8015610ac05780601f10610a9557610100808354040283529160200191610ac0565b820191906000526020600020905b815481529060010190602001808311610aa357829003601f168201915b5050505050915050919050565b610adf610ad86111ad565b83836116fc565b5050565b60606000610b17610af384611569565b604051602001610b039190612b66565b6040516020818303038152906040526116c9565b9050600a8054905081610b2a919061294e565b9050600a8181548110610b4057610b3f61297f565b5b906000526020600020018054610b559061268e565b80601f0160208091040260200160405190810160405280929190818152602001828054610b819061268e565b8015610bce5780601f10610ba357610100808354040283529160200191610bce565b820191906000526020600020905b815481529060010190602001808311610bb157829003601f168201915b5050505050915050919050565b610bec610be66111ad565b8361126e565b610c2b576040517f08c379a0000000000000000000000000000000000000000000000000000000008152600401610c2290612855565b60405180910390fd5b610c3784848484611868565b50505050565b6060610c4882611162565b6000600660008481526020019081526020016000208054610c689061268e565b80601f0160208091040260200160405190810160405280929190818152602001828054610c949061268e565b8015610ce15780601f10610cb657610100808354040283529160200191610ce1565b820191906000526020600020905b815481529060010190602001808311610cc457829003601f168201915b505050505090506000610cf26118c4565b90506000815103610d07578192505050610d4a565b600082511115610d3c578082604051602001610d24929190612b88565b60405160208183030381529060405292505050610d4a565b610d45846118db565b925050505b919050565b6000610d5b6007611943565b90506000610d68826106c3565b90506000610d7583610ae3565b90506000610d82846109d5565b90506000838383604051602001610d9b93929190612bac565b604051602081830303815290604052905060006008858585604051602001610dc69493929190612cc1565b60405160208183030381529060405290506000610e0b83610de684611951565b604051602001610df7929190612e60565b604051602081830303815290604052611951565b9050600081604051602001610e209190612ef1565b6040516020818303038152906040529050610e6f6040518060400160405280601581526020017f0a2d2d2d2d2d2d2d2d2d2d2d2d2d2d2d2d2d2d2d2d000000000000000000000081525061105f565b610e9781604051602001610e839190612f85565b60405160208183030381529060405261105f565b610ea08161105f565b610ede6040518060400160405280601581526020017f2d2d2d2d2d2d2d2d2d2d2d2d2d2d2d2d2d2d2d2d0a000000000000000000000081525061105f565b610f1c6040518060400160405280600b81526020017f0a2d2d2d2d2d2d2d2d2d2d00000000000000000000000000000000000000000081525061105f565b610f258361105f565b610f636040518060400160405280600b81526020017f2d2d2d2d2d2d2d2d2d2d0a00000000000000000000000000000000000000000081525061105f565b610f6d3389611ae8565b610f778882611b06565b610fb76040518060400160405280600e81526020017f6e667420676f74206d696e746564000000000000000000000000000000000000815250338a611b73565b610fc16007611c12565b5050505050505050565b6000600560008473ffffffffffffffffffffffffffffffffffffffff1673ffffffffffffffffffffffffffffffffffffffff16815260200190815260200160002060008373ffffffffffffffffffffffffffffffffffffffff1673ffffffffffffffffffffffffffffffffffffffff16815260200190815260200160002060009054906101000a900460ff16905092915050565b6110f5816040516024016110739190612204565b6040516020818303038152906040527f41304fac000000000000000000000000000000000000000000000000000000007bffffffffffffffffffffffffffffffffffffffffffffffffffffffff19166020820180517bffffffffffffffffffffffffffffffffffffffffffffffffffffffff8381831617835250505050611c28565b50565b60007f01ffc9a7000000000000000000000000000000000000000000000000000000007bffffffffffffffffffffffffffffffffffffffffffffffffffffffff1916827bffffffffffffffffffffffffffffffffffffffffffffffffffffffff1916149050919050565b61116b81611c51565b6111aa576040517f08c379a00000000000000000000000000000000000000000000000000000000081526004016111a1906129fa565b60405180910390fd5b50565b600033905090565b816004600083815260200190815260200160002060006101000a81548173ffffffffffffffffffffffffffffffffffffffff021916908373ffffffffffffffffffffffffffffffffffffffff160217905550808273ffffffffffffffffffffffffffffffffffffffff16611228836107db565b73ffffffffffffffffffffffffffffffffffffffff167f8c5be1e5ebec7d5bd14f71427d1e84f3dd0314c0f7b2291e5b200ac8c7c3b92560405160405180910390a45050565b60008061127a836107db565b90508073ffffffffffffffffffffffffffffffffffffffff168473ffffffffffffffffffffffffffffffffffffffff1614806112bc57506112bb8185610fcb565b5b806112fa57508373ffffffffffffffffffffffffffffffffffffffff166112e284610506565b73ffffffffffffffffffffffffffffffffffffffff16145b91505092915050565b8273ffffffffffffffffffffffffffffffffffffffff16611323826107db565b73ffffffffffffffffffffffffffffffffffffffff1614611379576040517f08c379a000000000000000000000000000000000000000000000000000000000815260040161137090613019565b60405180910390fd5b600073ffffffffffffffffffffffffffffffffffffffff168273ffffffffffffffffffffffffffffffffffffffff16036113e8576040517f08c379a00000000000000000000000000000000000000000000000000000000081526004016113df906130ab565b60405180910390fd5b6113f3838383611cbd565b6113fe6000826111b5565b6001600360008573ffffffffffffffffffffffffffffffffffffffff1673ffffffffffffffffffffffffffffffffffffffff168152602001908152602001600020600082825461144e91906130fa565b925050819055506001600360008473ffffffffffffffffffffffffffffffffffffffff1673ffffffffffffffffffffffffffffffffffffffff16815260200190815260200160002060008282546114a5919061312e565b92505081905550816002600083815260200190815260200160002060006101000a81548173ffffffffffffffffffffffffffffffffffffffff021916908373ffffffffffffffffffffffffffffffffffffffff160217905550808273ffffffffffffffffffffffffffffffffffffffff168473ffffffffffffffffffffffffffffffffffffffff167fddf252ad1be2c89b69c2b068fc378daa952ba7f163c4a11628f55a4df523b3ef60405160405180910390a4611564838383611cc2565b505050565b6060600082036115b0576040518060400160405280600181526020017f300000000000000000000000000000000000000000000000000000000000000081525090506116c4565b600082905060005b600082146115e25780806115cb90613162565b915050600a826115db91906131aa565b91506115b8565b60008167ffffffffffffffff8111156115fe576115fd612471565b5b6040519080825280601f01601f1916602001820160405280156116305781602001600182028036833780820191505090505b5090505b600085146116bd5760018261164991906130fa565b9150600a85611658919061294e565b6030611664919061312e565b60f81b81838151811061167a5761167961297f565b5b60200101907effffffffffffffffffffffffffffffffffffffffffffffffffffffffffffff1916908160001a905350600a856116b691906131aa565b9450611634565b8093505050505b919050565b6000816040516020016116dc91906131db565b6040516020818303038152906040528051906020012060001c9050919050565b8173ffffffffffffffffffffffffffffffffffffffff168373ffffffffffffffffffffffffffffffffffffffff160361176a576040517f08c379a00000000000000000000000000000000000000000000000000000000081526004016117619061323e565b60405180910390fd5b80600560008573ffffffffffffffffffffffffffffffffffffffff1673ffffffffffffffffffffffffffffffffffffffff16815260200190815260200160002060008473ffffffffffffffffffffffffffffffffffffffff1673ffffffffffffffffffffffffffffffffffffffff16815260200190815260200160002060006101000a81548160ff0219169083151502179055508173ffffffffffffffffffffffffffffffffffffffff168373ffffffffffffffffffffffffffffffffffffffff167f17307eab39ab6107e8899845ad3d59bd9653f200f220920489ca2b5937696c318360405161185b9190612159565b60405180910390a3505050565b611873848484611303565b61187f84848484611cc7565b6118be576040517f08c379a00000000000000000000000000000000000000000000000000000000081526004016118b5906132d0565b60405180910390fd5b50505050565b606060405180602001604052806000815250905090565b60606118e682611162565b60006118f06118c4565b90506000815111611910576040518060200160405280600081525061193b565b8061191a84611569565b60405160200161192b929190612b88565b6040516020818303038152906040525b915050919050565b600081600001549050919050565b6060600082519050600081036119795760405180602001604052806000815250915050611ae3565b6000600360028361198a919061312e565b61199491906131aa565b60046119a091906132f0565b905060006020826119b1919061312e565b67ffffffffffffffff8111156119ca576119c9612471565b5b6040519080825280601f01601f1916602001820160405280156119fc5781602001600182028036833780820191505090505b5090506000604051806060016040528060408152602001613827604091399050600181016020830160005b86811015611aa05760038101905062ffffff818a015116603f8160121c168401518060081b905060ff603f83600c1c1686015116810190508060081b905060ff603f8360061c1686015116810190508060081b905060ff603f831686015116810190508060e01b90508084526004840193505050611a27565b506003860660018114611aba5760028114611aca57611ad5565b613d3d60f01b6002830352611ad5565b603d60f81b60018303525b508484525050819450505050505b919050565b611b02828260405180602001604052806000815250611e4e565b5050565b611b0f82611c51565b611b4e576040517f08c379a0000000000000000000000000000000000000000000000000000000008152600401611b45906133a4565b60405180910390fd5b80600660008481526020019081526020016000209081611b6e919061355b565b505050565b611c0d838383604051602401611b8b9392919061362d565b6040516020818303038152906040527f0d26b925000000000000000000000000000000000000000000000000000000007bffffffffffffffffffffffffffffffffffffffffffffffffffffffff19166020820180517bffffffffffffffffffffffffffffffffffffffffffffffffffffffff8381831617835250505050611c28565b505050565b6001816000016000828254019250508190555050565b60008151905060006a636f6e736f6c652e6c6f679050602083016000808483855afa5050505050565b60008073ffffffffffffffffffffffffffffffffffffffff166002600084815260200190815260200160002060009054906101000a900473ffffffffffffffffffffffffffffffffffffffff1673ffffffffffffffffffffffffffffffffffffffff1614159050919050565b505050565b505050565b6000611ce88473ffffffffffffffffffffffffffffffffffffffff16611ea9565b15611e41578373ffffffffffffffffffffffffffffffffffffffff1663150b7a02611d116111ad565b8786866040518563ffffffff1660e01b8152600401611d3394939291906136c0565b6020604051808303816000875af1925050508015611d6f57506040513d601f19601f82011682018060405250810190611d6c9190613721565b60015b611df1573d8060008114611d9f576040519150601f19603f3d011682016040523d82523d6000602084013e611da4565b606091505b506000815103611de9576040517f08c379a0000000000000000000000000000000000000000000000000000000008152600401611de0906132d0565b60405180910390fd5b805181602001fd5b63150b7a0260e01b7bffffffffffffffffffffffffffffffffffffffffffffffffffffffff1916817bffffffffffffffffffffffffffffffffffffffffffffffffffffffff191614915050611e46565b600190505b949350505050565b611e588383611ecc565b611e656000848484611cc7565b611ea4576040517f08c379a0000000000000000000000000000000000000000000000000000000008152600401611e9b906132d0565b60405180910390fd5b505050565b6000808273ffffffffffffffffffffffffffffffffffffffff163b119050919050565b600073ffffffffffffffffffffffffffffffffffffffff168273ffffffffffffffffffffffffffffffffffffffff1603611f3b576040517f08c379a0000000000000000000000000000000000000000000000000000000008152600401611f329061379a565b60405180910390fd5b611f4481611c51565b15611f84576040517f08c379a0000000000000000000000000000000000000000000000000000000008152600401611f7b90613806565b60405180910390fd5b611f9060008383611cbd565b6001600360008473ffffffffffffffffffffffffffffffffffffffff1673ffffffffffffffffffffffffffffffffffffffff1681526020019081526020016000206000828254611fe0919061312e565b92505081905550816002600083815260200190815260200160002060006101000a81548173ffffffffffffffffffffffffffffffffffffffff021916908373ffffffffffffffffffffffffffffffffffffffff160217905550808273ffffffffffffffffffffffffffffffffffffffff16600073ffffffffffffffffffffffffffffffffffffffff167fddf252ad1be2c89b69c2b068fc378daa952ba7f163c4a11628f55a4df523b3ef60405160405180910390a46120a160008383611cc2565b5050565b6000604051905090565b600080fd5b600080fd5b60007fffffffff0000000000000000000000000000000000000000000000000000000082169050919050565b6120ee816120b9565b81146120f957600080fd5b50565b60008135905061210b816120e5565b92915050565b600060208284031215612127576121266120af565b5b6000612135848285016120fc565b91505092915050565b60008115159050919050565b6121538161213e565b82525050565b600060208201905061216e600083018461214a565b92915050565b600081519050919050565b600082825260208201905092915050565b60005b838110156121ae578082015181840152602081019050612193565b60008484015250505050565b6000601f19601f8301169050919050565b60006121d682612174565b6121e0818561217f565b93506121f0818560208601612190565b6121f9816121ba565b840191505092915050565b6000602082019050818103600083015261221e81846121cb565b905092915050565b6000819050919050565b61223981612226565b811461224457600080fd5b50565b60008135905061225681612230565b92915050565b600060208284031215612272576122716120af565b5b600061228084828501612247565b91505092915050565b600073ffffffffffffffffffffffffffffffffffffffff82169050919050565b60006122b482612289565b9050919050565b6122c4816122a9565b82525050565b60006020820190506122df60008301846122bb565b92915050565b6122ee816122a9565b81146122f957600080fd5b50565b60008135905061230b816122e5565b92915050565b60008060408385031215612328576123276120af565b5b6000612336858286016122fc565b925050602061234785828601612247565b9150509250929050565b60008060006060848603121561236a576123696120af565b5b6000612378868287016122fc565b9350506020612389868287016122fc565b925050604061239a86828701612247565b9150509250925092565b6000602082840312156123ba576123b96120af565b5b60006123c8848285016122fc565b91505092915050565b6123da81612226565b82525050565b60006020820190506123f560008301846123d1565b92915050565b6124048161213e565b811461240f57600080fd5b50565b600081359050612421816123fb565b92915050565b6000806040838503121561243e5761243d6120af565b5b600061244c858286016122fc565b925050602061245d85828601612412565b9150509250929050565b600080fd5b600080fd5b7f4e487b7100000000000000000000000000000000000000000000000000000000600052604160045260246000fd5b6124a9826121ba565b810181811067ffffffffffffffff821117156124c8576124c7612471565b5b80604052505050565b60006124db6120a5565b90506124e782826124a0565b919050565b600067ffffffffffffffff82111561250757612506612471565b5b612510826121ba565b9050602081019050919050565b82818337600083830152505050565b600061253f61253a846124ec565b6124d1565b90508281526020810184848401111561255b5761255a61246c565b5b61256684828561251d565b509392505050565b600082601f83011261258357612582612467565b5b813561259384826020860161252c565b91505092915050565b600080600080608085870312156125b6576125b56120af565b5b60006125c4878288016122fc565b94505060206125d5878288016122fc565b93505060406125e687828801612247565b925050606085013567ffffffffffffffff811115612607576126066120b4565b5b6126138782880161256e565b91505092959194509250565b60008060408385031215612636576126356120af565b5b6000612644858286016122fc565b9250506020612655858286016122fc565b9150509250929050565b7f4e487b7100000000000000000000000000000000000000000000000000000000600052602260045260246000fd5b600060028204905060018216806126a657607f821691505b6020821081036126b9576126b861265f565b5b50919050565b7f4552433732313a20617070726f76616c20746f2063757272656e74206f776e6560008201527f7200000000000000000000000000000000000000000000000000000000000000602082015250565b600061271b60218361217f565b9150612726826126bf565b604082019050919050565b6000602082019050818103600083015261274a8161270e565b9050919050565b7f4552433732313a20617070726f76652063616c6c6572206973206e6f7420746f60008201527f6b656e206f776e6572206e6f7220617070726f76656420666f7220616c6c0000602082015250565b60006127ad603e8361217f565b91506127b882612751565b604082019050919050565b600060208201905081810360008301526127dc816127a0565b9050919050565b7f4552433732313a2063616c6c6572206973206e6f7420746f6b656e206f776e6560008201527f72206e6f7220617070726f766564000000000000000000000000000000000000602082015250565b600061283f602e8361217f565b915061284a826127e3565b604082019050919050565b6000602082019050818103600083015261286e81612832565b9050919050565b600081905092915050565b7f6472756e6b000000000000000000000000000000000000000000000000000000600082015250565b60006128b6600583612875565b91506128c182612880565b600582019050919050565b60006128d782612174565b6128e18185612875565b93506128f1818560208601612190565b80840191505092915050565b6000612908826128a9565b915061291482846128cc565b915081905092915050565b7f4e487b7100000000000000000000000000000000000000000000000000000000600052601260045260246000fd5b600061295982612226565b915061296483612226565b9250826129745761297361291f565b5b828206905092915050565b7f4e487b7100000000000000000000000000000000000000000000000000000000600052603260045260246000fd5b7f4552433732313a20696e76616c696420746f6b656e2049440000000000000000600082015250565b60006129e460188361217f565b91506129ef826129ae565b602082019050919050565b60006020820190508181036000830152612a13816129d7565b9050919050565b7f4552433732313a2061646472657373207a65726f206973206e6f74206120766160008201527f6c6964206f776e65720000000000000000000000000000000000000000000000602082015250565b6000612a7660298361217f565b9150612a8182612a1a565b604082019050919050565b60006020820190508181036000830152612aa581612a69565b9050919050565b7f63616e0000000000000000000000000000000000000000000000000000000000600082015250565b6000612ae2600383612875565b9150612aed82612aac565b600382019050919050565b6000612b0382612ad5565b9150612b0f82846128cc565b915081905092915050565b7f6461790000000000000000000000000000000000000000000000000000000000600082015250565b6000612b50600383612875565b9150612b5b82612b1a565b600382019050919050565b6000612b7182612b43565b9150612b7d82846128cc565b915081905092915050565b6000612b9482856128cc565b9150612ba082846128cc565b91508190509392505050565b6000612bb882866128cc565b9150612bc482856128cc565b9150612bd082846128cc565b9150819050949350505050565b60008190508160005260206000209050919050565b60008154612bff8161268e565b612c098186612875565b94506001821660008114612c245760018114612c3957612c6c565b60ff1983168652811515820286019350612c6c565b612c4285612bdd565b60005b83811015612c6457815481890152600182019150602081019050612c45565b838801955050505b50505092915050565b7f3c2f746578743e3c2f7376673e00000000000000000000000000000000000000600082015250565b6000612cab600d83612875565b9150612cb682612c75565b600d82019050919050565b6000612ccd8287612bf2565b9150612cd982866128cc565b9150612ce582856128cc565b9150612cf182846128cc565b9150612cfc82612c9e565b915081905095945050505050565b7f7b226e616d65223a202200000000000000000000000000000000000000000000600082015250565b6000612d40600a83612875565b9150612d4b82612d0a565b600a82019050919050565b7f222c20226465736372697074696f6e223a20224120686967686c79206163636c60008201527f61696d656420636f6c6c656374696f6e206f6620737175617265732e222c202260208201527f696d616765223a2022646174613a696d6167652f7376672b786d6c3b6261736560408201527f36342c0000000000000000000000000000000000000000000000000000000000606082015250565b6000612dfe606383612875565b9150612e0982612d56565b606382019050919050565b7f227d000000000000000000000000000000000000000000000000000000000000600082015250565b6000612e4a600283612875565b9150612e5582612e14565b600282019050919050565b6000612e6b82612d33565b9150612e7782856128cc565b9150612e8282612df1565b9150612e8e82846128cc565b9150612e9982612e3d565b91508190509392505050565b7f646174613a6170706c69636174696f6e2f6a736f6e3b6261736536342c000000600082015250565b6000612edb601d83612875565b9150612ee682612ea5565b601d82019050919050565b6000612efc82612ece565b9150612f0882846128cc565b915081905092915050565b7f68747470733a2f2f6e6674707265766965772e30786465762e636f6465732f3f60008201527f636f64653d000000000000000000000000000000000000000000000000000000602082015250565b6000612f6f602583612875565b9150612f7a82612f13565b602582019050919050565b6000612f9082612f62565b9150612f9c82846128cc565b915081905092915050565b7f4552433732313a207472616e736665722066726f6d20696e636f72726563742060008201527f6f776e6572000000000000000000000000000000000000000000000000000000602082015250565b600061300360258361217f565b915061300e82612fa7565b604082019050919050565b6000602082019050818103600083015261303281612ff6565b9050919050565b7f4552433732313a207472616e7366657220746f20746865207a65726f2061646460008201527f7265737300000000000000000000000000000000000000000000000000000000602082015250565b600061309560248361217f565b91506130a082613039565b604082019050919050565b600060208201905081810360008301526130c481613088565b9050919050565b7f4e487b7100000000000000000000000000000000000000000000000000000000600052601160045260246000fd5b600061310582612226565b915061311083612226565b9250828203905081811115613128576131276130cb565b5b92915050565b600061313982612226565b915061314483612226565b925082820190508082111561315c5761315b6130cb565b5b92915050565b600061316d82612226565b91507fffffffffffffffffffffffffffffffffffffffffffffffffffffffffffffffff820361319f5761319e6130cb565b5b600182019050919050565b60006131b582612226565b91506131c083612226565b9250826131d0576131cf61291f565b5b828204905092915050565b60006131e782846128cc565b915081905092915050565b7f4552433732313a20617070726f766520746f2063616c6c657200000000000000600082015250565b600061322860198361217f565b9150613233826131f2565b602082019050919050565b600060208201905081810360008301526132578161321b565b9050919050565b7f4552433732313a207472616e7366657220746f206e6f6e20455243373231526560008201527f63656976657220696d706c656d656e7465720000000000000000000000000000602082015250565b60006132ba60328361217f565b91506132c58261325e565b604082019050919050565b600060208201905081810360008301526132e9816132ad565b9050919050565b60006132fb82612226565b915061330683612226565b925082820261331481612226565b9150828204841483151761332b5761332a6130cb565b5b5092915050565b7f45524337323155524953746f726167653a2055524920736574206f66206e6f6e60008201527f6578697374656e7420746f6b656e000000000000000000000000000000000000602082015250565b600061338e602e8361217f565b915061339982613332565b604082019050919050565b600060208201905081810360008301526133bd81613381565b9050919050565b60006020601f8301049050919050565b600082821b905092915050565b6000600883026134117fffffffffffffffffffffffffffffffffffffffffffffffffffffffffffffffff826133d4565b61341b86836133d4565b95508019841693508086168417925050509392505050565b6000819050919050565b600061345861345361344e84612226565b613433565b612226565b9050919050565b6000819050919050565b6134728361343d565b61348661347e8261345f565b8484546133e1565b825550505050565b600090565b61349b61348e565b6134a6818484613469565b505050565b5b818110156134ca576134bf600082613493565b6001810190506134ac565b5050565b601f82111561350f576134e081612bdd565b6134e9846133c4565b810160208510156134f8578190505b61350c613504856133c4565b8301826134ab565b50505b505050565b600082821c905092915050565b600061353260001984600802613514565b1980831691505092915050565b600061354b8383613521565b9150826002028217905092915050565b61356482612174565b67ffffffffffffffff81111561357d5761357c612471565b5b613587825461268e565b6135928282856134ce565b600060209050601f8311600181146135c557600084156135b3578287015190505b6135bd858261353f565b865550613625565b601f1984166135d386612bdd565b60005b828110156135fb578489015182556001820191506020850194506020810190506135d6565b868310156136185784890151613614601f891682613521565b8355505b6001600288020188555050505b505050505050565b6000606082019050818103600083015261364781866121cb565b905061365660208301856122bb565b61366360408301846123d1565b949350505050565b600081519050919050565b600082825260208201905092915050565b60006136928261366b565b61369c8185613676565b93506136ac818560208601612190565b6136b5816121ba565b840191505092915050565b60006080820190506136d560008301876122bb565b6136e260208301866122bb565b6136ef60408301856123d1565b81810360608301526137018184613687565b905095945050505050565b60008151905061371b816120e5565b92915050565b600060208284031215613737576137366120af565b5b60006137458482850161370c565b91505092915050565b7f4552433732313a206d696e7420746f20746865207a65726f2061646472657373600082015250565b600061378460208361217f565b915061378f8261374e565b602082019050919050565b600060208201905081810360008301526137b381613777565b9050919050565b7f4552433732313a20746f6b656e20616c7265616479206d696e74656400000000600082015250565b60006137f0601c8361217f565b91506137fb826137ba565b602082019050919050565b6000602082019050818103600083015261381f816137e3565b905091905056fe4142434445464748494a4b4c4d4e4f505152535455565758595a6162636465666768696a6b6c6d6e6f707172737475767778797a303132333435363738392b2fa2646970667358221220eb181ae1113ff6a58e4ab26e582b8dbd74a73990e1b501bdd9ee3f8e70e9e52f64736f6c634300081100333c73766720786d6c6e733d27687474703a2f2f7777772e77332e6f72672f323030302f73766727207072657365727665417370656374526174696f3d27784d696e594d696e206d656574272076696577426f783d273020302033353020333530273e3c7374796c653e2e62617365207b2066696c6c3a2077686974653b20666f6e742d66616d696c793a2073657269663b20666f6e742d73697a653a20323470783b207d3c2f7374796c653e3c726563742077696474683d273130302527206865696768743d2731303025272066696c6c3d27626c61636b27202f3e3c7465787420783d273530252720793d273530252720636c6173733d27626173652720646f6d696e616e742d626173656c696e653d276d6964646c652720746578742d616e63686f723d276d6964646c65273e",
  "linkReferences": {},
  "deployedLinkReferences": {}
}